:060000000A128A110C280F
:10000800FE00030EF8000A08F9000A128A111828DF
:100018000A128A110F28F001F101F201F301F4012B
:1000280083010A128A119028831203138C1D1D283C
:100038001E2850281412141B222823282728941F0E
:10004800262827282D281308F400141394131416AF
:100058004E2883160313941A322833284E28141D69
:10006800362837284E28831203131308F400831602
:100078000313141071088312031393001416A63087
:10008800F500F50B452800008316031314184D28B6
:100098004E28482883128C110B1C53285428742886
:1000A800861F572858286D287008031D5C285D286E
:1000B8007328F001F00A0630F7001330F600AD306F
:1000C800F500F50B6528F60B6528F70B65286C28F5
:1000D80073280130F5007508F107F0015F280B104F
:1000E8000B1D7728782889280130F5007508F20754
:1000F80096307206031D812882288428F301F201B4
:100108000B11643083120313810079088A00780E7A
:100118008300FE0E7E0E09000A128A11D1200A12EF
:100128008A11F10183120313A401A40A851415305E
:1001380083120313A3004B30A200BD30A100A10B12
:10014800A328A20BA328A30BA328AA28C628861F86
:10015800AE28AF28B7288510F2010B118B16643032
:100168008100F301F30A7308031DBB28BC28BF28CC
:100178000B118B128514861FC228C328C528871027
:10018800C62887148312031324030319CC28CD2807
:10019800AB28C6280A128A110C288316031788016F
:1001A8008901831603130510851007118710861718
:1001B8008312031385018601870188010B108B15B3
:1001C80083160313811281110115811401149617E6
:1001D8000F178F160F160F14A0300A128A11FB2062
:1001E8000A128A11643083120313810008008312F3
:1001F8000313A000200883160313930036308312DC
:100208000313940080308316031394000130910087
:10021800871507168B170B17831203138C11831678
:0602280003138C15080011
:08400000FF3FFF3FFF3FFF3FC0
:04400E00D420FF3F7C
:00000001FF
