:060000000A128A1110280B
:10000800FE00030E83160313A1000A08A2007F084E
:10001800A3000A128A11372D0A128A111328831293
:100028000313EF0183160313A501A601A70183019A
:100038000A128A11F72F8312031323088039AD009F
:100048002308A8002807B300A21F2B282C282D2836
:10005800331433080319312832284128330A031D81
:10006800362837283F280030A3000030A20000308F
:10007800A1000030A000A21749280030A3000030DA
:10008800A2000030A1000030A00027088039A80095
:100098002808AD062708A8002807B200A61F55287B
:1000A800562857283214320803195B285C286B2815
:1000B800320A031D6028612869280030A700003033
:1000C800A6000030A5000030A400A6177328003051
:1000D800A7000030A6000030A5000030A4003208B8
:1000E8000319772878287D283308031D7C287D2864
:1000F80086280030A3000030A2000030A1000030A4
:10010800A000632B2008F00026080A128A15392758
:100118000A128A11710883120313B9007008B80013
:100128003808A800A901AA01AB012B08B1002A08C8
:10013800B0002908AF002808AE003908A800A901B6
:10014800AA01AB012B08B7002A08B6002908B50098
:100158002808B4002108F00025080A128A15392752
:100168000A128A11710883120313B9007008B800C3
:100178003808A800A901AA01AB012808AE07290878
:1001880003110318013E0319CA28AF072A080311EF
:100198000318013E0319D128B0072B0803110318CF
:1001A800013E0319D828B1073908A800A901AA01F6
:1001B800AB012808B407290803110318013E0319E5
:1001C800E628B5072A0803110318013E0319ED288C
:1001D800B6072B0803110318013E0319F428B707C3
:1001E8002208F00024080A128A1539270A128A11EF
:1001F800710883120313B9007008B8003808A80002
:10020800A901AA01AB012808AE07290803110318A0
:10021800013E03191029AF072A0803110318013EEC
:1002280003191729B0072B0803110318013E0319F6
:100238001E29B1073908A800A901AA01AB0128089D
:10024800B407290803110318013E03192C29B5071F
:100258002A0803110318013E03193329B6072B088E
:1002680003110318013E03193A29B7070830A800FB
:100278000310AE0DAF0DB00DB10DA80B3C29210830
:10028800F00024080A128A1539270A128A117108FF
:1002980083120313B9007008B8003808A800390899
:1002A800A900AA01AB012808AE0729080311031801
:1002B800013E03196029AF072A0803110318013EFC
:1002C80003196729B0072B0803110318013E031906
:1002D8006E29B1072008F00025080A128A15392767
:1002E8000A128A11710883120313B9007008B80042
:1002F8003808A8003908A900AA01AB012808AE07E8
:10030800290803110318013E03198B29AF072A088E
:1003180003110318013E03199229B0072B08031192
:100328000318013E03199929B1070830A8000310E2
:10033800AE0DAF0DB00DB10DA80B9B292008F00034
:1003480024080A128A1539270A128A117108831299
:100358000313B9007008B8003808A8003908A900C4
:10036800AA01AB012808AE07290803110318013EAA
:100378000319BF29AF072A0803110318013E0319FF
:10038800C629B0072B0803110318013E0319CD290C
:10039800B1072108F00026080A128A1539270A121F
:1003A8008A11710883120313B9007008B80038085D
:1003B800A8003908A900AA01AB012808B407290830
:1003C80003110318013E0319EA29B5072A08031186
:1003D8000318013E0319F129B6072B080311031866
:1003E800013E0319F829B7072208F00025080A1268
:1003F8008A1539270A128A11710883120313B90062
:100408007008B8003808A8003908A900AA01AB018B
:100418002808B407290803110318013E0319152AEF
:10042800B5072A0803110318013E03191C2AB60749
:100438002B0803110318013E0319232AB7072208C2
:10044800F00026080A128A1539270A128A1171083B
:1004580083120313B9007008B8003808A8003908D7
:10046800A900AA01AB0108300310A80DA90DAA0D17
:10047800AB0DFF3E031D382A2808B40729080311CD
:100488000318013E0319492AB5072A08031103185E
:10049800013E0319502AB6072B0803110318013E21
:1004A8000319572AB7072E08A8002F08A9003008F3
:1004B800AA003108AB0018300310AB0CAA0CA90C29
:1004C800A80CFF3E031D602A2808B4072908031159
:1004D8000318013E0319712AB5072A0803110318E6
:1004E800013E0319782AB6072B0803110318013EA9
:1004F80003197F2AB7070830A8000310AE0DAF0D07
:10050800B00DB10DA80B812A33083207A800A90144
:10051800A90D2808823EB80029080318013EFF3EAD
:10052800B900B32A0130A8000310B40DB50DB60DFB
:10053800B70DA80B982AB11FA22AA32AA42A3414FB
:100548000130A8000310AE0DAF0DB00DB10DA80B12
:10055800A62AFF30B8070318B90AFF30B907B61F33
:10056800B62AB72A962AB201B11FBB2ABC2AD82AB2
:10057800FF302E05A800FF302F05A900FF303005F9
:10058800AA007F303105AB002B082A04290428046F
:100598000319CF2AD02AD32AB201B20AD82A341C86
:1005A800D62AD72AD82AD02A32080319DC2ADD2AE3
:1005B8000E2B0130B407003003180130B5070030A6
:1005C80003180130B607003003180130B707371C8D
:1005D800EE2AEF2A0E2B3408A8003508A9003608A1
:1005E800AA003708AB000130AC002B0DAB0CAA0CED
:1005F800A90CA80CAC0BF92A2B08B7002A08B600DE
:100608002908B5002808B4000130B8070318B90A4A
:100618000030B9073908803AFF0080307F02031D97
:10062800172BFF303802031C1A2B1B2B262B7F306D
:1006380083120313B7008030B6000030B5000030D5
:10064800B400572B831203133908803AFF00803017
:100658007F02031D312B013038020318342B352B50
:10066800412B003083120313B7000030B60000306E
:10067800B5000030B400AD01572B831203133808BE
:10068800B300FF30B405FF30B5057F30B605003044
:10069800B705331C502B512B522BB6173308A80023
:1006A8000310280CB7002D08A8002808B70437083D
:1006B800A3003608A2003508A1003408A0000800ED
:1006C8008312031341088039CB004108C200420756
:1006D800D200C01F702B712B722B521452080319B1
:1006E800762B772B872B520A031D7B2B7C2B842B95
:1006F8000030C1000030C0000030BF000030BE0034
:10070800C017C1018F2B0030C1000030C00000307D
:10071800BF000030BE003D088039C2004208CB0649
:100728003D08C2004207D300BC1F9B2B9C2B9D2B6E
:10073800531453080319A12BA22BB22B530A031DE0
:10074800A62BA72BAF2B0030BD000030BC0000301B
:10075800BB000030BA00BC17BD01BA2B0030BD0089
:100768000030BC000030BB000030BA003D083C043B
:100778003B043A04031DC12BC22BDB2B0030C10004
:100788000030C0000030BF000030BE008030C00420
:100798007F30C1044B08C2004208C1044108BD00B3
:1007A8004008BC003F08BB003E08BA00362D52087E
:1007B800031DDF2BE02BE92B0030BD000030BC000F
:1007C8000030BB000030BA00362D5208C200C30109
:1007D8004308C50053084202C400031CC50344086B
:1007E8007F3ECC0045080318013E003ECD0041087D
:1007F800CA004008C9003F08C8003E08C7000030CA
:10080800C1000030C0000030BF000030BE00003022
:10081800D1000030D0000030CF000030CE00D3012E
:100828005F2C53080319192C1A2C3A2C0130C200DA
:100838000310C70DC80DC90DCA0DC20B1C2C013001
:10084800C2000310BE0DBF0DC00DC10DC20B252C7B
:10085800D11F2F2C302C312C3E140130C200031034
:10086800CE0DCF0DD00DD10DC20B332C3D084A0251
:10087800031D482C3C084902031D482C3B0848022C
:10088800031D482C3A084702031C4B2C4C2C5B2CAC
:1008980051173A08C7023B08031C3B0FC8023C0823
:1008A800031C3C0FC9023D08031C3D0FCA0201305E
:1008B800C2004208D3071A305302031C642C652C6B
:1008C800152C4A0849044804470403196C2C6D2C5C
:1008D8008C2C4E148C2C0130C2000310BE0DBF0DA1
:1008E800C00DC10DC20B712CD11F7B2C7C2C7D2C13
:1008F8003E140130C2000310CE0DCF0DD00DD10D26
:10090800C20B7F2CFF30CC070318CD0AFF30CD0770
:10091800C01F8F2C902C6F2CD301D11F942C952C99
:10092800B12CFF304E05C200FF304F05C300FF3029
:100938005005C4007F305105C500450844044304F0
:1009480042040319A82CA92CAC2CD301D30AB12C2E
:100958003E1CAF2CB02CB12CA92C53080319B52C74
:10096800B62CE72C0130BE07003003180130BF0752
:10097800003003180130C007003003180130C107E8
:10098800411CC72CC82CE72C3E08C2003F08C300F6
:100998004008C4004108C5000130C600450DC50C1B
:1009A800C40CC30CC20CC60BD22C4508C1004408A9
:1009B800C0004308BF004208BE000130CC0703183E
:1009C800CD0A0030CD074D08803AFF0080307F0205
:1009D800031DF02CFF304C02031CF32CF42C022DC9
:1009E800FF3083120313CC000030CD000030C1006B
:1009F8000030C0000030BF000030BE008312031377
:100A08004D08803AFF0080307F02031D0D2D013014
:100A18004C020318102D112D1E2D83120313CC0127
:100A2800CD010030C1000030C0000030BF000030F0
:100A3800BE00CB01831203134C08D200521C252D93
:100A4800262D282DC0172C2D7F30C2004208C00546
:100A58005208C2000310420CC1004B08C2004208F1
:100A6800C104D22B0800831203138C1D3C2D3D2D8D
:100A7800A72D1412141B412D422D462D941F452DD0
:100A8800462D4B2D1308EF001413941314168316D8
:100A98000313941A502D512D6F2D1419542D552DC3
:100AA8006F2D831203131308EF008C11141683168D
:100AB8000313141C602D612D5B2D8312031313087F
:100AC80083160313A700A53083160313A000A00BF9
:100AD8006B2D6E2DA42D941A722D732DA42D141D1B
:100AE800762D772DA42D831203131308EF00831698
:100AF800031314100A128A1154270A128A11831236
:100B080003135708E6005608E5005508E4005408A2
:100B1800E3000A128A1588270A128A11831203131E
:100B2800630893001416A53083160313A000A00BC6
:100B38009B2D9E2D831603131418A32DA42D9E2DD3
:100B4800831203138C110B1DAA2DAB2DED2D0A1248
:100B58008A1154270A128A11831203135708E600D0
:100B68005608E5005508E4005408E3004130EA005F
:100B78000030E9000030E8000030E7000A128A116E
:100B8800B0260A128A110318CA2DCB2DDB2D831229
:100B9800031305141930F0000030F1000A128A1509
:100BA80027270A128A11831203130510EA2D8312CC
:100BB800031305140A30F0000030F1000A128A15F8
:100BC80027270A128A118312031305100B116430A8
:100BD8008100831603132308FF0022088A00210ED0
:100BE8008300FE0E7E0E0900F80078080319FD2D1B
:100BF800FE2D122EF31F012E022E122E7009FA005E
:100C08007109FB007209FC007309FD00FA0A031957
:100C1800FB0A0319FC0A0319FD0A1A2E7308FD00C2
:100C28007208FC007108FB007008FA00730872046F
:100C380071047004031D212E222E2B2E0030F30088
:100C48000030F2000030F1000030F000AF2E963096
:100C5800F9003B2E0130F4007408F9070130031045
:100C6800FD0CFC0CFB0CFA0CFF3E031D332EFE3072
:100C78007D05031D402E412E2E2E5D2E0130F400E1
:100C88007408F9070130FA07003003180130FB0730
:100C9800003003180130FC07003003180130FD074D
:100CA80001300310FD0CFC0CFB0CFA0CFF3E031D7D
:100CB800552EFF307D05031D622E632E422E6F2EAA
:100CC8000130F9020130F4000310FA0DFB0DFC0DA0
:100CD800FD0DF40B682EFC1B722E732E792E02303C
:100CE80079020318782E792E642E79187C2E7D2EA1
:100CF800852EFF30FA05FF30FB057F30FC05FF30FD
:100D0800FD050310F90C7908F400F501F601F70167
:100D180018300310F40DF50DF60DF70DFF3E031D09
:100D28008D2E7408FA047508FB047608FC0477080D
:100D3800FD0478080319A12EA22EA72EF31FA52EB5
:100D4800A62EA72EFD177D08F3007C08F2007B086D
:100D5800F1007A08F00008000030831203136305DD
:100D6800EB0000306405EC0080306505ED007F3055
:100D78006605EE006E086D046C046B04031DC52E39
:100D8800C62ECE2E0030E6000030E5000030E4002C
:100D98000030E30000306705EB0000306805EC0028
:100DA80080306905ED007F306A05EE006E086D043D
:100DB8006C046B04031DE12EE22EEA2E0030EA00DB
:100DC8000030E9000030E8000030E700E61FED2EB3
:100DD800EE2E122F0030EB000030EC000030ED005A
:100DE8008030EE006308EB026408031C640FFD2EDC
:100DF800FE2EEC026508031C650F032F042FED027D
:100E08006608031C660F092F0A2FEE026E08E6001B
:100E18006D08E5006C08E4006B08E300EA1F152F75
:100E2800162F3A2F0030EB000030EC000030ED00B8
:100E38008030EE006708EB026808031C680F252F56
:100E4800262FEC026908031C690F2B2F2C2FED02AB
:100E58006A08031C6A0F312F322FEE026E08EA006F
:100E68006D08E9006C08E8006B08E7008030E606CA
:100E78008030EA066A086602031D4C2F690865027D
:100E8800031D4C2F68086402031D4C2F670863027A
:100E980003184F2F502F522F0310532F03140800FD
:100EA800831203138815053083120313D800D80B57
:100EB8005B2F5E2F831203138811081D642F652F83
:100EC800612F8E018F01101408196B2F6C2F682F5A
:100ED8000F08E2000E08E10010103F30A3000030B8
:100EE800A2000030A1000030A0006108F0006208F4
:100EF800F100F201F30100300A128A11F8250A12F2
:100F08008A11730883120313A7007208A6007108D8
:100F1800A5007008A4000A128A111F200A128A115B
:100F2800831203132308E0002208DF002108DE00F3
:100F38002008DD004230BD006830BC000030BB0036
:100F48000030BA003F30A3008030A2000030A1007A
:100F58000030A0006008A7005F08A6005E08A50092
:100F68005D08A4000A128A111F200A128A1183122E
:100F780003132308C1002208C0002108BF0020086D
:100F8800BE000A128A1164230A128A1183120313FB
:100F98003D08DC003C08DB003B08DA003A08D900D1
:100FA8005C08D7005B08D6005A08D5005908D40059
:100FB800080083160313A400240893003630831214
:100FC80003139400803083160313940001309100BA
:100FD800871507168B170B17831203138C118316AB
:100FE80003138C1508000A128A1560270A128A1141
:080FF800FC2F0A128A111028D7
:101E4E00322F2130F200F20B2A2F0130F002003037
:101E5E00031CF103F10270087104031D372F382F94
:101E6E00282F0800F800F401F5017008F200F301C4
:101E7E007208F6007308F700781C462F472F4D2F77
:101E8E007608F4070318F50A7708F50701300310F2
:101E9E00F60DF70DFF3E031D4E2F0310F80C7808BC
:101EAE00031D5A2F5B2F432F7508F1007408F000A5
:101EBE000800831603178801890183160313850111
:101ECE008811081583120313850186018701880185
:101EDE00831603130F178F160F160F148B160B1175
:101EEE0081128111011581140114643083120313C0
:101EFE0081009001B0300A128A11DD270A128A156C
:101F0E000800031083120313650D660DEC006C08B8
:101F1E00031D922F932F9C2F0030E6000030E5001A
:101F2E000030E4000030E300FF2F6308E700640890
:101F3E00E8006508E9006608EA001F300310EA0CA5
:101F4E00E90CE80CE70CFF3E031DA52F6708EB001C
:101F5E00E517FF30E305FF30E405FF30E5050030FF
:101F6E00E6059630EC02EC1FBD2FBE2FD82F6C0865
:101F7E00803A973E0318C42FC52FC62F932F0130DA
:101F8E000310E60CE50CE40CE30CFF3E031DC72F1B
:101F9E000130E7006708EC07031DD62FD72FC62F99
:101FAE00EF2F20306C02031CDD2FDE2FEA2F932F34
:101FBE000130E7000310E30DE40DE50DE60DE70B30
:101FCE00E12F0130EC026C08031DEE2FEF2FDF2FF7
:101FDE006B080319F32FF42FFF2FE309E409E5092A
:101FEE00E609E30A0319E40A0319E50A0319E60AE6
:021FFE000800D9
:08400000FF3FFF3FFF3FFF3FC0
:04400E00D420FF3F7C
:00000001FF
