:060000000A128A110C280F
:10000800FE00030EF9000A08FA000A168A11D92B15
:100018000A128A110F28FB01FC01FD018313CE305F
:100028008400DC300A168A1512250A128A118317F1
:1000380090308400DE300A168A1512250A128A11B9
:100048001030840040300A168A1512250A128A11C7
:1000580083010A168A11A92E831603132508013E67
:10006800AD00003003180130AE00B101B201230821
:1000780083120313A30083160313220883120313A6
:10008800A20083160313210883120313A100831609
:100098000313200883120313A0000030A7000030C8
:1000A800A6000030A5000030A4000A168A114B25CE
:1000B8000A128A11031861286228A02883160313DC
:1000C800240884002D30831780000130A6002608FC
:1000D800A407230883120313A3008316031322081B
:1000E80083120313A2008316031321088312031338
:1000F800A10083160313200883120313A0000A1615
:100108008A1566250A128A11831203132308831697
:100118000313A30083120313220883160313A200F8
:1001280083120313210883160313A10083120313F8
:10013800200883160313A000003083120313A300C2
:100148000030A2000030A1000030A0008316031385
:10015800230883120313A7008316031322088312AC
:100168000313A60083160313210883120313A500A3
:1001780083160313200883120313A4000A168A1196
:100188004B250A128A110318CA28CB28802911295D
:10019800413083120313BD002030BC000030BB0087
:1001A8000030BA0083160313230883120313C10017
:1001B80083160313220883120313C0008316031344
:1001C800210883120313BF00831603132008831228
:1001D8000313BE000A128A1136240A128A118312E6
:1001E80003133D0883160313A300831203133C086B
:1001F80083160313A200831203133B088316031309
:10020800A100831203133A0883160313A000FF30DA
:10021800B1070318B20AFF30B20783160313230885
:1002280083120313A30083160313220883120313F4
:10023800A20083160313210883120313A100831657
:100248000313200883120313A0003F30A700803057
:10025800A6000030A5000030A4000A168A114B251C
:100268000A128A11031C39293A29CC2880294130DD
:1002780083120313A3002030A2000030A100003035
:10028800A00083160313230883120313A700831601
:100298000313220883120313A600831603132108ED
:1002A80083120313A5008316031320088312031374
:1002B800A4000A128A15A1210A128A1183120313B3
:1002C800230883160313A30083120313220883163B
:1002D8000313A20083120313210883160313A1003A
:1002E80083120313200883160313A0000130B107FB
:1002F8000318B20A0030B2078316031323088312C7
:100308000313A30083160313220883120313A20006
:1003180083160313210883120313A1008316031302
:10032800200883120313A0004130A7002030A60044
:100338000030A5000030A4000A168A114B250A12C5
:100348008A110318A829A9293B2983160313310800
:100358002D07AD0032080318320A2E07AE0001300F
:10036800AF000030B0002F0883120313A6008316D5
:100378000313300883120313A7000030A71BFF30B4
:10038800A800A90001300A168A11EF250A128A115D
:1003980083120313290883160313AC008312031373
:1003A800280883160313AB00831203132708831648
:1003B8000313AA0083120313260883160313A90044
:1003C8002A2A413083120313A3002030A2000030F0
:1003D800A1000030A000831603132C088312031316
:1003E800A700831603132B0883120313A600831692
:1003F80003132A0883120313A5008316031329087D
:1004080083120313A4000A128A15A1210A128A1161
:1004180083120313230883160313AC0083120313F8
:10042800220883160313AB008312031321088316D3
:100438000313AA0083120313200883160313A900C9
:100448000130AF070318B00A0030B0073008803A0F
:10045800A6002E08803A2602031D342A2D082F02F2
:10046800031C372A382AE529831603132C0883121C
:100478000313A700831603132B0883120313A60084
:10048800831603132A0883120313A5008316031384
:10049800290883120313A4004030A3000030A200EF
:1004A8000030A1000030A0000A128A15A1210A120A
:1004B8008A11831203132308D7002208D6002108C3
:1004C800D5002008D40083160313230883120313CE
:1004D800DB0083160313220883120313DA00831642
:1004E8000313210883120313D9008316031320086A
:1004F80083120313D8000A128A15A8250A128A1132
:1005080083120313570883160313A30083120313DC
:10051800560883160313A200831203135508831683
:100528000313A10083120313540883160313A000B6
:10053800230883120313A3008316031322088312CC
:100548000313A20083160313210883120313A100C7
:1005580083160313200883120313A0004130A70059
:100568002030A6000030A5000030A4000A168A1129
:100578004B250A128A11031CC22AC32AD32A3F30E8
:1005880083160313A3008030A2000030A1000030BE
:10059800A0000130B1070318B20A0030B207831671
:1005A8000313B21FD82AD92A1A2B24088400303002
:1005B800831780000130A6002608A40724088400B9
:1005C8002E3080000130A6002608A407AE1FED2AB1
:1005D800EE2AF62A2D083102B1002E08031C2E0A35
:1005E8003202B200FF30AF00FF30B0000C2B831690
:1005F8000313240884003030831780000130A600DC
:100608002608A407FF30AF070318B00AFF30B00769
:100618003208803AA6003008803A2602031D162BBD
:100628002F083102031C192B1A2BFB2A83160313DC
:10063800AF01B001212C831603132308831203137F
:10064800A30083160313220883120313A200831640
:100658000313210883120313A10083160313200830
:1006680083120313A0000A168A1148240A128A1159
:1006780083120313210883160313A800831203139C
:10068800200883160313A700240884002708303E97
:10069800831780000130A6002608A4073208300618
:1006A800031D582B31082F06031D5B2B5C2B642B75
:1006B800240884002E3080000130A6002608A407F4
:1006C800270883120313A60083160313280883122E
:1006D8000313A7000030A71BFF30A800A9000130B2
:1006E8000A168A11EF250A128A11831203132908A0
:1006F80083160313AC00831203132808831603130D
:10070800AB0083120313270883160313AA0083126E
:100718000313260883160313A9002C088312031356
:10072800EB00831603132B0883120313EA008316C6
:1007380003132A0883120313E900831603132908F5
:1007480083120313E8008316031323088312031389
:10075800EF0083160313220883120313EE00831697
:100768000313210883120313ED00831603132008D3
:1007780083120313EC000A168A1543260A128A11FB
:10078800831203136B0883160313A3008312031346
:100798006A0883160313A2008312031369088316D9
:1007A8000313A10083120313680883160313A00020
:1007B800413083120313BD002030BC000030BB0061
:1007C8000030BA0083160313230883120313C100F1
:1007D80083160313220883120313C000831603131E
:1007E800210883120313BF00831603132008831202
:1007F8000313BE000A128A1136240A128A118312C0
:1008080003133D0883160313A300831203133C0844
:1008180083160313A200831203133B0883160313E2
:10082800A100831203133A0883160313A0000130B2
:10083800AF070318B00A0030B0073008803AA600A6
:100848002E08803A2602031D2B2C2D082F02031C8C
:100858002E2C2F2C1F2B8316031324088400831798
:1008680080010800831203133D088039C7003D0842
:10087800C2004207CD00BC1F422C432C442C4D140F
:100888004D080319482C492C582C4D0A031D4D2C92
:100898004E2C562C0030BD000030BC000030BB0090
:1008A8000030BA00BC17602C0030BD000030BC001E
:1008B8000030BB000030BA0041088039C20042084D
:1008C800C7064108C2004207CC00C01F6C2C6D2C23
:1008D8006E2C4C144C080319722C732C822C4C0A65
:1008E800031D772C782C802C0030C1000030C0000C
:1008F8000030BF000030BE00C0178A2C0030C10095
:100908000030C0000030BF000030BE004C080319A2
:100918008E2C8F2C942C4D08031D932C942C9D2CDD
:100928000030BD000030BC000030BB000030BA0011
:100938007A2F3A08A00040080A168A158E260A124D
:100948008A11831203132108D3002008D200520809
:10095800C200C301C401C5014508CB004408CA0050
:100968004308C9004208C8005308C200C301C401B3
:10097800C5014508D1004408D0004308CF0042080B
:10098800CE003B08A0003F080A168A158E260A12D8
:100998008A11831203132108D3002008D2005208B9
:1009A800C200C301C401C5014208C80743080311B6
:1009B8000318013E0319E12CC90744080311031861
:1009C800013E0319E82CCA07450803110318013E24
:1009D8000319EF2CCB075308C200C301C401C5019A
:1009E8004208CE07430803110318013E0319FD2CE2
:1009F800CF07440803110318013E0319042DD0073B
:100A0800450803110318013E03190B2DD1073C08B3
:100A1800A0003E080A168A158E260A128A11831229
:100A280003132108D3002008D2005208C200C301D2
:100A3800C401C5014208C807430803110318013E51
:100A48000319272DC907440803110318013E031988
:100A58002E2DCA07450803110318013E0319352D29
:100A6800CB075308C200C301C401C5014208CE0721
:100A7800430803110318013E0319432DCF07440807
:100A880003110318013E03194A2DD0074508031125
:100A98000318013E0319512DD1070830C200031075
:100AA800C80DC90DCA0DCB0DC20B532D3B08A000B4
:100AB8003E080A168A158E260A128A118312031313
:100AC8002108D3002008D2005208C2005308C300EE
:100AD800C401C5014208C807430803110318013EB1
:100AE8000319772DC907440803110318013E031998
:100AF8007E2DCA07450803110318013E0319852DE9
:100B0800CB073A08A0003F080A168A158E260A1253
:100B18008A11831203132108D3002008D200520837
:100B2800C2005308C300C401C5014208C8074308EE
:100B380003110318013E0319A22DC9074408031124
:100B48000318013E0319A92DCA0745080311031804
:100B5800013E0319B02DCB070830C2000310C80DA1
:100B6800C90DCA0DCB0DC20BB22D3A08A0003E0824
:100B78000A168A158E260A128A118312031321086F
:100B8800D3002008D2005208C2005308C300C40191
:100B9800C5014208C807430803110318013E031999
:100BA800D62DC907440803110318013E0319DD2D8A
:100BB800CA07450803110318013E0319E42DCB07A2
:100BC8003B08A00040080A168A158E260A128A11C8
:100BD800831203132108D3002008D2005208C20050
:100BE8005308C300C401C5014208CE0743080311D6
:100BF8000318013E0319012ECF07440803110318F7
:100C0800013E0319082ED007450803110318013EB9
:100C180003190F2ED1073C08A0003F080A168A15B1
:100C28008E260A128A11831203132108D300200882
:100C3800D2005208C2005308C300C401C5014208CB
:100C4800CE07430803110318013E03192C2ECF07C2
:100C5800440803110318013E0319332ED007450831
:100C680003110318013E03193A2ED1073C08A000CE
:100C780040080A168A158E260A128A11831203134F
:100C88002108D3002008D2005208C2005308C3002C
:100C9800C401C50108300310C20DC30DC40DC50D34
:100CA800FF3E031D4F2E4208CE07430803110318C9
:100CB800013E0319602ECF07440803110318013EB3
:100CC8000319672ED007450803110318013E0319BD
:100CD8006E2ED1074808C2004908C3004A08C4005C
:100CE8004B08C50018300310C50CC40CC30CC20C4B
:100CF800FF3E031D772E4208CE0743080311031851
:100D0800013E0319882ECF07440803110318013E3A
:100D180003198F2ED007450803110318013E031944
:100D2800962ED1070830C2000310C80DC90DCA0D90
:100D3800CB0DC20B982E4D084C07C200C301C30D42
:100D48004208823ED20043080318013EFF3ED3000A
:100D5800CA2E0130C2000310CE0DCF0DD00DD10D1B
:100D6800C20BAF2ECB1FB92EBA2EBB2E4E1401309C
:100D7800C2000310C80DC90DCA0DCB0DC20BBD2E84
:100D8800FF30D2070318D30AFF30D307D01FCD2E68
:100D9800CE2EAD2ECC01CB1FD22ED32EEF2EFF3070
:100DA8004805C200FF304905C300FF304A05C400AA
:100DB8007F304B05C5004508440443044204031929
:100DC800E62EE72EEA2ECC01CC0AEF2E4E1CED2E95
:100DD800EE2EEF2EE72E4C080319F32EF42E252FB6
:100DE8000130CE07003003180130CF070030031858
:100DF8000130D007003003180130D107511C052FEE
:100E0800062F252F4E08C2004F08C3005008C40003
:100E18005108C5000130C600450DC50CC40CC30CF3
:100E2800C20CC60B102F4508D1004408D000430857
:100E3800CF004208CE000130D2070318D30A003091
:100E4800D3075308803AFF0080307F02031D2E2FFE
:100E5800FF305202031C312F322F3D2F7F30831277
:100E68000313D1008030D0000030CF000030CE0016
:100E78006E2F831203135308803AFF0080307F02DD
:100E8800031D482F0130520203184B2F4C2F582FA7
:100E9800003083120313D1000030D0000030CF009F
:100EA8000030CE00C7016E2F831203135208CD0005
:100EB800FF30CE05FF30CF057F30D0050030D1059B
:100EC8004D1C672F682F692FD0174D08C2000310DB
:100ED800420CD1004708C2004208D1045108BD00A5
:100EE8005008BC004F08BB004E08BA0008000A169C
:100EF8008A151A250A128A11603083120313AA0070
:100F08000030AB000A168A152C250A128A1183169E
:100F18000313550883120313A300831603135408FD
:100F280083120313A20083160313530883120313B7
:100F3800A10083160313520883120313A0000A1694
:100F48008A1148240A128A11831203132108AB005C
:100F58002008AA000A168A152C250A128A11831657
:100F68000313570883120313AC00AD012C08AA0021
:100F78002D08AB000A168A152C250A128A11831629
:100F88000313510883120313A30083160313500895
:100F980083120313A200831603134F08831203134B
:100FA800A100831603134E0883120313A0000A1628
:100FB8008A1148240A128A11831203132108AB00EC
:100FC8002008AA000A168A152C250A128A110A1660
:100FD8008A1523250A128A111A3083120313AD00C9
:100FE800F730AC00AC0BF62FAD0BF62FFB2F08003B
:10100200F30083120313081373080A168A15FF25C7
:101012000A128A158312031388170B30F20062300A
:10102200F100F10B1228F20B1228000083120313B5
:101032008813080083120313BD002F30B8008C29D7
:101042002530400603192628272831283D08840028
:101052004008831780000130B5003508BD078C2990
:10106200BE01BF01B9013A2839150130B500350872
:10107200AE072E0884000A168A150A200A128A155B
:10108200B500B6013608003A031948284D2835083C
:10109200303A031935284D282E0884000A168A157D
:1010A2000A200A128A150A168A1582250A128A1538
:1010B200031C5C285D28A32883120313BE01BF0111
:1010C2000A3083120313A0000030A1003F08A300DE
:1010D2003E08A2000A168A1567260A128A1583128A
:1010E20003132108BF002008BE002E0884000A1640
:1010F2008A150A200A128A15D03EB500FF3003185D
:101102000030B6003508BE070318BF0A3608BF070D
:101112000130B5003508AE072E0884000A168A157C
:101122000A200A128A150A168A1582250A128A15B7
:1011320003189C289D286128A328C030B5003508D3
:10114200B904BF28013083120313AE07FF302E0704
:1011520084000A168A150A200A128A15C000B500F0
:10116200B6013608003A0319B7288C293508003A27
:1011720003199C29753A03199E288C293808840082
:1011820083130008BA00840A0008BB000230B500CD
:101192003508B807C001C00A4008B5003507013E4E
:1011A20084000A168A150A200A128A15B6000A163F
:1011B2008A150A200A128A15B70037083B02031D56
:1011C200E42836083A020318E728E828E928F32831
:1011D2000130B5003508C00705304006031DF2286E
:1011E200F328CD283F08803A803C031DFA283E08A8
:1011F20040020318FD28FE280A298312031340081F
:10120200B500B6013508BE023608031CBF03BF0293
:101212000E2983120313BE01BF01391D11291229A0
:101222002E293E083F0403191729182949293D0888
:1012320084003030831780000130B5003508BD07C7
:10124200FF30BE070318BF0AFF30BF073E083F0446
:10125200031D2C292D29182949293E083F04031969
:101262003329342949293D0884002030831780001E
:101272000130B5003508BD07FF30BE070318BF0AAD
:10128200FF30BF073E083F04031D4829492934297E
:101292004008BC0083290A30A8000030A9003C089D
:1012A200B5003507013E84000A168A150A200A1283
:1012B2008A15A0000A168A150A200A128A15A100A8
:1012C2003B08A3003A08A2000A168A1114210A1246
:1012D2008A15831203132108AB002008AA000A16FC
:1012E2008A1192200A128A15831203132808303EAB
:1012F200C0003D0884004008831780000130B5001B
:101302003508BD07FF30B5003508BC073C0A031D90
:101312008B298C294C290130AE07FF302E0784001F
:101322000A168A150A200A128A15C0004008031DEF
:101332009B299C2921283D088400831780010800ED
:101342008312031327088039B1002708A800280751
:10135200B800A61FAD29AE29AF29381438080319E1
:10136200B329B429C429380A031DB829B929C129C6
:101372000030A7000030A6000030A5000030A40015
:10138200A617A701CC290030A7000030A600003024
:10139200A5000030A40023088039A8002808B1065F
:1013A2002308A8002807B900A21FD829D929DA29B9
:1013B200391439080319DE29DF29EF29390A031DF7
:1013C200E329E429EC290030A3000030A200003018
:1013D200A1000030A000A217A301F7290030A3004A
:1013E2000030A2000030A1000030A0002308220437
:1013F20021042004031DFE29FF29182A0030A7001A
:101402000030A6000030A5000030A4008030A60401
:101412007F30A7043108A8002808A7042708A300E2
:101422002608A2002508A1002408A000732B380872
:10143200031D1C2A1D2A262A0030A3000030A20008
:101442000030A1000030A000732B3808A800A901C9
:101452002908AB0039082802AA00031CAB032A089A
:101462007F3EB2002B080318013E003EB30027085E
:10147200B0002608AF002508AE002408AD000030F9
:10148200A7000030A6000030A5000030A400003004
:10149200B7000030B6000030B5000030B400B9012A
:1014A2009C2A39080319562A572A772A0130A8009C
:1014B2000310AD0DAE0DAF0DB00DA80B592A0130C2
:1014C200A8000310A40DA50DA60DA70DA80B622A56
:1014D200B71F6C2A6D2A6E2A24140130A80003104B
:1014E200B40DB50DB60DB70DA80B702A2308300246
:1014F200031D852A22082F02031D852A21082E0298
:10150200031D852A20082D02031C882A892A982A6D
:1015120037172008AD022108031C210FAE02220852
:10152200031C220FAF022308031C230FB002013059
:10153200A8002808B9071A303902031CA12AA22AD6
:10154200522A30082F042E042D040319A92AAA2A8C
:10155200C92A3414C92A0130A8000310A40DA50D0C
:10156200A60DA70DA80BAE2AB71FB82AB92ABA2A08
:1015720024140130A8000310B40DB50DB60DB70D3B
:10158200A80BBC2AFF30B2070318B30AFF30B30717
:10159200A61FCC2ACD2AAC2AB901B71FD12AD22A3A
:1015A200EE2AFF303405A800FF303505A900FF30D0
:1015B2003605AA007F303705AB002B082A04290420
:1015C20028040319E52AE62AE92AB901B90AEE2A0A
:1015D200241CEC2AED2AEE2AE62A39080319F22AFB
:1015E200F32A242B0130A407003003180130A50789
:1015F200003003180130A607003003180130A70796
:10160200271C042B052B242B2408A8002508A9003D
:101612002608AA002708AB000130AC002B0DAB0C4A
:10162200AA0CA90CA80CAC0B0F2B2B08A7002A089C
:10163200A6002908A5002808A4000130B207031853
:10164200B30A0030B3073308803AFF0080307F02CC
:10165200031D2D2BFF303202031C302B312B3F2B6D
:10166200FF3083120313B2000030B3000030A70032
:101672000030A6000030A5000030A400831203133E
:101682003308803AFF0080307F02031D4A2B01306D
:10169200320203184D2B4E2B5B2B83120313B20124
:1016A200B3010030A7000030A6000030A5000030D2
:1016B200A400B101831203133208B800381C622B54
:1016C200632B652BA617692B7F30A8002808A60577
:1016D2003808A8000310280CA7003108A800280821
:1016E200A7040F2A08000A168A151A250A128A1553
:1016F200703083120313AA000030AB000A168A1559
:101702002C250A128A15AC3083120313AA0000306A
:10171200AB000A168A152C250A128A153330831259
:101722000313AA000030AB000A168A152C250A12F0
:101732008A15003083120313AA00AB000A168A1519
:101742002C250A128A150A168A1523250A128A15C9
:10175200D03083160313B400C930B300B30BAF2BE0
:10176200B40BAF2B0A168A151A250A128A15703085
:1017720083120313AA000030AB000A168A152C2527
:101782000A128A15713083120313AA000030AB00CB
:101792000A168A152C250A128A150A168A15732525
:1017A2000A128A15713083120313AA000030AB00AB
:1017B2000A168A152C250A128A1500308312031381
:1017C200A000A1000A168A1521260A128A150A16F5
:1017D2008A1536250A128A150A168A1523250A122F
:1017E2008A150A168A151A250A128A157130831269
:1017F2000313AA000030AB000A168A152C250A1220
:101802008A15003083120313A000A1000A168A155C
:1018120021260A128A158312031320088316031342
:10182200C1000A168A1541250A128A150030831250
:101832000313A000A1000A168A1521260A128A158E
:1018420083120313200883160313C2000A168A1593
:1018520041250A128A15003083120313A000A10049
:101862000A168A1521260A128A15831203132008E2
:1018720083160313C3000A168A1541250A128A1514
:10188200003083120313A000A1000A168A15212634
:101892000A128A1583120313200883160313C40045
:1018A2000A168A1541250A128A150030831203137B
:1018B200A000A1000A168A1521260A128A1583128F
:1018C2000313200883160313C5000A168A1541253F
:1018D2000A128A15003083120313A000A1000A160F
:1018E2008A1521260A128A158312031320088316E9
:1018F2000313C6000A168A1541250A128A150030FA
:1019020083120313A000A1000A168A1521260A12C7
:101912008A1583120313200883160313C7000A16BD
:101922008A1536250A128A150A168A1523250A12DD
:101932008A15831603134608B300B401B501B60134
:101942004508B700B8013708B800B7013708B90031
:101952003808BA00BB01BC0144080F39BD00BE0102
:10196200BF01C00110300310BD0DBE0DBF0DC00D73
:10197200FF3E031DB42C3D08B9073E0803183E0F75
:10198200C32CC42CBA073F0803183F0FC92CCA2C1A
:10199200BB0740080318400ABC073908B3073A08D6
:1019A20003183A0FD52CD62CB4073B0803183B0F6B
:1019B200DB2CDC2CB5073C0803183C0AB6073608BA
:1019C20083120313A900831603133508831203132A
:1019D200A80083160313340883120313A700831687
:1019E2000313330883120313A60000300A168A1168
:1019F200EF250A128A15831203132908831603138B
:101A0200D10083120313280883160313D000831214
:101A12000313270883160313CF0083120313260828
:101A220083160313CE00C23083120313D70048304B
:101A3200D6000030D5000030D4004330BD0048301D
:101A4200BC000030BB000030BA004930A300803037
:101A5200A2000030A1000030A00083160313510839
:101A620083120313A7008316031350088312031370
:101A7200A600831603134F0883120313A5008316CF
:101A820003134E0883120313A4000A128A15A1211C
:101A92000A128A15831203132308C1002208C00008
:101AA2002108BF002008BE000A128A1136240A1239
:101AB2008A15831203133D08DB003C08DA003B0859
:101AC200D9003A08D8000A128A15A8250A128A15DE
:101AD20083120313570883160313D10083120313CF
:101AE200560883160313D000831203135508831676
:101AF2000313CF0083120313540883160313CE007B
:101B02005108A3005008A2004F08A1004E08A000EF
:101B12009030A4000230A5000A128A1130200A1265
:101B22008A150C3083120313A40001300A168A119D
:101B32005A210A128A15903083120313A50001302C
:101B4200A6000A168A11CE200A128A1508008312EC
:101B5200031357088039E4005708DC005C07E600ED
:101B6200D61FB42DB52DB62D661466080319BA2DED
:101B7200BB2DCB2D660A031DBF2DC02DC82D0030F5
:101B8200D7000030D6000030D5000030D400D61780
:101B9200D701D32D0030D7000030D6000030D50059
:101BA2000030D4005B088039E5006508640603193B
:101BB200DB2DDC2DDD2D64175B08DC005C07E50006
:101BC200DA1FE42DE52DE62D651465080319EA2DCB
:101BD200EB2DFB2D650A031DEF2DF02DF82D0030A6
:101BE200DB000030DA000030D9000030D800DA170C
:101BF200DB01032E0030DB000030DA000030D900B8
:101C02000030D800660865020318082E092E2F2E10
:101C1200641F0C2E0D2E112E8030DC005C08E406B1
:101C22006608E7006508E6006708E5005408E70073
:101C32005808D4006708D8005508E7005908D500AD
:101C42006708D9005608E7005A08D6006708DA0084
:101C52005708E7005B08D7006708DB00E701650863
:101C6200DC00DD015D08DF0066085C02DE00031CAB
:101C7200DF035F08803AFF0080307F02031D432E9E
:101C82001A305E02031C462E472E7E2E8312031349
:101C92005708560455045404031D502E522E013089
:101CA200532E0030E7000030D7000030D60000305D
:101CB200D5000030D4006508E600862E671C622E2F
:101CC200632E6A2E6708DC0003105C0C0138E70003
:101CD2006C2E0310E70C541C6F2E702E712EE7171A
:101CE2000130DC00570DD70CD60CD50CD40CDC0B14
:101CF200732E0130DC005C08E607831203136508CB
:101D02006602031C852E862E5F2E641B892E8A2E68
:101D1200D32E6608031D8E2E8F2E982E0030D700EC
:101D22000030D6000030D5000030D400FF2F580814
:101D3200D407590803110318013E0319A12ED50730
:101D42005A0803110318013E0319A82ED6075B088F
:101D520003110318013E0319AF2ED707571CB22EE9
:101D6200B32E872F671CB62EB72EBE2E6708DC0057
:101D720003105C0C0138E700C02E0310E70C541C62
:101D8200C32EC42EC52EE7170130DC00570DD70C29
:101D9200D60CD50CD40CDC0BC72E0130DC005C0851
:101DA200E607872F5708803AFF005B08803A7F02D8
:101DB200031DE52E5A085602031DE52E5908550249
:101DC200031DE52E580854020318E82EE92E412F70
:101DD200FF30DC00FF30DD00FF30DE00FF30DF00CF
:101DE2005808E0005908E1005A08E2005B08E300E5
:101DF2005408E0025508031C550F002F012FE10281
:101E02005608031C560F062F072FE2025708031C21
:101E1200570F0C2F0D2FE3026008DC07610803182F
:101E2200610F142F152FDD0762080318620F1A2F96
:101E32001B2FDE0763080318630ADF075F08D7005A
:101E42005E08D6005D08D5005C08D4008030DC0056
:101E52005C08E406E709E70A6708031D312F322F01
:101E62004F2F0130D407003003180130D50700305E
:101E720003180130D607003003180130D7074F2F5F
:101E82005808D4025908031C590FD5025A08031CDA
:101E92005A0FD6025B08031C5B0FD7025708560481
:101EA20055045404031D562F572F832F6708031D13
:101EB2005B2F5C2F832F0030D7000030D60000301C
:101EC200D5000030D400FF2F0130DC000310D40D08
:101ED200D50DD60DD70DDC0B672FE71F712F722F93
:101EE200732F5414671C762F772F7A2F0314E70D64
:101EF2007C2F0310E70D66080319802F812F832F93
:101F02000130E602D61F862F872F652FE501E71FD6
:101F12008B2F8C2F9A2F67087F390319912F922FBD
:101F2200952FE501E50A9A2F541C982F992F9A2F85
:101F3200922F650803199E2F9F2FD32F0130D407AC
:101F4200003003180130D507003003180130D607DE
:101F5200003003180130D707571CB02FB12FD32FF1
:101F62005408DC005508DD005608DE005708DF0083
:101F72000130E0005F0DDF0CDE0CDD0CDC0CE00B51
:101F8200BB2F5F08D7005E08D6005D08D5005C084D
:101F9200D400660A0319CE2FCF2FD32F0130DC00D5
:101FA2005C08E607660A0319D72FD82FDD2F6608CB
:101FB200031DDC2FDD2FEB2F0030D7000030D600C1
:101FC2000030D5000030D4006608031DE92FEA2F47
:101FD200EB2FE401661CEE2FEF2FF12FD617F52F12
:101FE2007F30DC005C08D6056608DC0003105C0C60
:0E1FF200D700E41FFD2FFE2FFF2FD71708008A
:1020060083120313A7000F302705A4000A30A0008F
:102016002708A50004300310A50CFF3E031D0E285B
:1020260025080A168A15AC250A168A118312031387
:102036002407A6002608080083120313AE000A161A
:102046008A151A250A168A11D03083120313AA009C
:102056000030AB000A168A152C250A168A110130A3
:1020660083120313AA000030AB000A168A152C252A
:102076000A168A11831203132E080A168A15962544
:102086000A168A1183120313AC00AD012C08AA00AC
:102096002D08AB000A168A152C250A168A110A166F
:1020A6008A1523250A168A1108002830831203137D
:1020B6009400831603139101831203132E08B200B2
:1020C6002F08B3003008B4003108B5000230031001
:1020D600B20DB30DB40DB50DFF3E031D6A283508CC
:1020E600A3003408A2003308A1003208A000003083
:1020F600A7007A30A6001230A5000030A4000A1608
:102106008A1171230A168A11831203132008FF3ECF
:10211600831603139300940187150716080083128C
:10212600031328082904031999289A28C928AD01F8
:10213600AD0AA82801300310A80DA90DFF3E031D06
:102146009E280130AC002C08AD07A91FAB28AC288F
:102156009D2829082B02031DB22828082A02031CE1
:10216600B528B628BC282808AA022908031CAB03F0
:10217600AB0201300310A90CA80CFF3E031DBD28BD
:102186000130AD02031DC828C928AC282B08A900B8
:102196002A08A800080083120313AA01AB01F72836
:1021A6002A082507A8002608A7000318A70AAA1FB9
:1021B600DD28A703831203132708A9002908FF00B7
:1021C600280884000A168A1500200A168A110A169B
:1021D6008A158E270A168A11013083120313AA075D
:1021E6000318AB0A0030AB072A082507A800260803
:1021F600A7000318A70AAA1F0129A703831203131E
:102206002708A9002908FF00280884000A168A154D
:1022160000200A168A11003A031D12291329D32811
:10222600080083120313A501A6012008210403193F
:102236001D291E295529A701A70A2C29013003109B
:10224600A00DA10DFF3E031D22290130A400240884
:10225600A707A11F2F293029212901300310A50D19
:10226600A60DFF3E031D312921082302031D3D292A
:1022760020082202031C4029412948292008A202DD
:102286002108031CA303A302251401300310A10C8B
:10229600A00CFF3E031D49290130A702031D542946
:1022A600552930292608A1002508A0000800831218
:1022B6000313A6002603031D612962298129240828
:1022C6007F3EA9002908A50004300310A50CFF3E97
:1022D600031D68292508A70029080F39A800270823
:1022E6000A168A15C3250A168A11831203132808AB
:1022F6000A168A15C3250A168A11A529023026064A
:10230600031D86298729A5292408BF3EA900290877
:10231600A50004300310A50CFF3E031D8D292508DA
:10232600A70029080F39A80027080A168A15C32509
:102336000A168A118312031328080A168A15C3255A
:102346000A168A11080083120313AE000A168A15AC
:102356001A250A168A11D03083120313AA000030F8
:10236600AB000A168A152C250A168A118312031346
:102376002E08AC00AD012C08AA002D08AB000A16E9
:102386008A152C250A168A110A168A1573250A1625
:102396008A11D13083120313AA000030AB000A164B
:1023A6008A152C250A168A11003083120313A00001
:1023B600A1000A168A1521260A168A11831203130A
:1023C6002008AF000A168A1536250A168A110A163B
:1023D6008A1523250A168A11053083120313AC00C9
:1023E600AC0BF329F629831203132F0808000A16EB
:1023F6008A151A250A168A11B13083120313AA0008
:102406000030AB000A168A152C250A168A110030F0
:1024160083120313A000A1000A168A1521260A16A4
:102426008A11831203132008B4002108B500B601EF
:10243600B7013708A9003608A8003508A7003408F0
:10244600A60000300A168A11EF250A168A11831291
:102456000313290883160313D500831203132808D0
:1024660083160313D400831203132708831603135A
:10247600D30083120313260883160313D2000A1609
:102486008A1523250A168A11343083120313B500E0
:10249600F130B400B40B4D2AB50B4D2A08000A16CC
:1024A6008A151A250A168A11A03083120313AA0068
:1024B6000030AB000A168A152C250A168A118316D7
:1024C6000313570883120313AC00AD012C08AA00AE
:1024D6002D08AB000A168A152C250A168A110A162B
:1024E6008A1523250A168A11343083120313AD0088
:1024F600F130AC00AC0B7D2AAD0B7D2A0A168A158D
:102506001A250A168A11A13083120313AA00003075
:10251600AB000A168A152C250A168A11003083127A
:102526000313A000A1000A168A1521260A168A118D
:1025360083120313200883160313D7000A168A157D
:1025460023250A168A11053083120313AC00AC0B3F
:10255600AA2AAD2A080000300A168A15FF250A168F
:102566008A113430F500F130F400F40BB82AF50B7B
:10257600B82ABD2A03300A128A1501200A168A11C2
:102586000D30F500FB30F400F40BC72AF50BC72A13
:10259600CC2A03300A128A1501200A168A118530C0
:1025A600F400F40BD42A03300A128A1501200A1605
:1025B6008A1102300A128A1501200A168A1102307F
:1025C6000A128A1501200A168A1108300A128A157B
:1025D60001200A168A1100300A128A1501200A16ED
:1025E6008A110C300A128A1501200A168A11003047
:1025F6000A128A1501200A168A1106300A128A154D
:1026060001200A168A114230F400F40B082B000050
:10261600080000300A168A15DF250A168A1134309A
:1026260083120313A500F130A400A40B182BA50BED
:10263600182B03300A168A15C3250A168A110D307F
:1026460083120313A500FB30A400A40B282BA50BB3
:10265600282B03300A168A15C3250A168A118430D8
:1026660083120313A400A40B362B000003300A16B2
:102676008A15C3250A168A1102300A168A15C32539
:102686000A168A1102300A168A15C3250A168A11F5
:1026960008300A168A15C3250A168A1100300A164A
:1026A6008A15C3250A168A110C300A168A15C325FF
:1026B6000A168A1100300A168A15C3250A168A11C7
:1026C60006300A168A15C3250A168A114130831266
:1026D6000313A400A40B6D2B702B0800003083128B
:1026E6000313AC000030AB000030AA000030A90094
:1026F60023082204210420040319822B832BD02BC8
:10270600AD01AD0A932B0130A8000310A00DA10D59
:10271600A20DA30DA80B882B0130A8002808AD0731
:10272600A31F962B972B862B0130A8000310A90D0B
:10273600AA0DAB0DAC0DA80B992B23082702031D80
:10274600AE2B22082602031DAE2B21082502031DEF
:10275600AE2B20082402031CB12BB22BC12B200860
:10276600A4022108031C210FA5022208031C220F24
:10277600A6022308031C230FA70229140130031005
:10278600A30CA20CA10CA00CFF3E031DC22B013012
:10279600AD02031DCF2BD02B972B2C08A3002B08A3
:1027A600A2002A08A1002908A00008000B1CDC2BA7
:1027B600DD2B2B2C0B10831203138619E32BE42B32
:1027C600F02B3430F700F130F600F60BE82BF70B60
:1027D600E82BED2BFD01FD0A2B2C861DF32BF42B8C
:1027E6002B2C7D03031DF82BF92B2B2C831603139F
:1027F6005808031DFF2B002C192CD801D80A0A16DD
:102806008A154C250A168A110A168A11AE220A164C
:102816008A110530F8000F30F700F130F600F60B9C
:10282600122CF70B122CF80B122C2A2C5803031D12
:102836001D2C1E2C2A2CD8010A168A154C250A1680
:102846008A110A168A11AE220A168A110C2CFD016B
:102856000B1D2E2C2F2C412C0130F6007608FB0781
:10286600AF307B06031D382C392C3C2CFC01FB01B8
:102876008B120B1164308312031381007A088A00CD
:10288600790E8300FE0E7E0E0900031083120313D9
:10289600220D230DA9002908031D522C532C5C2C54
:1028A6000030A3000030A2000030A1000030A000DC
:1028B600BF2C2008A4002108A5002208A600230892
:1028C600A7001F300310A70CA60CA50CA40CFF3EF6
:1028D600031D652C2408A800A217FF30A005FF30B1
:1028E600A105FF30A2050030A3059630A902A91F55
:1028F6007D2C7E2C982C2908803A973E0318842C30
:10290600852C862C532C01300310A30CA20CA10C91
:10291600A00CFF3E031D872C0130A4002408A90744
:10292600031D962C972C862CAF2C20302902031CD5
:102936009D2C9E2CAA2C532C0130A4000310A00D14
:10294600A10DA20DA30DA40BA12C0130A9022908EB
:10295600031DAE2CAF2C9F2C28080319B32CB42CC6
:10296600BF2CA009A109A209A309A00A0319A10A5B
:102976000319A20A0319A30A080068308312031375
:10298600AD00E330AC00AC0BC62CAD0BC62CCB2C8B
:102996000A168A151A250A168A117030831203132D
:1029A600AA000030AB000A168A152C250A168A11D1
:1029B600713083120313AA000030AB000A168A1581
:1029C6002C250A168A110A168A1573250A168A11E3
:1029D600713083120313AA000030AB000A168A1561
:1029E6002C250A168A11003083120313A000A100B9
:1029F6000A168A1521260A168A110A168A153625F6
:102A06000A168A110A168A1523250A168A110A1623
:102A16008A151A250A168A11703083120313AA0022
:102A26000030AB000A168A152C250A168A11E130E9
:102A360083120313AA000030AB000A168A152C2550
:102A46000A168A11083083120313AA000030AB005D
:102A56000A168A152C250A168A11003083120313CA
:102A6600AA00AB000A168A152C250A168A110A1620
:102A76008A1523250A168A111A3083120313AD000C
:102A8600F730AC00AC0B452DAD0B452D4A2D08009B
:102A96000030831203132005A80000302105A90089
:102AA60080302205AA007F302305AB002B082A04BC
:102AB60029042804031D602D612D692D0030A30013
:102AC6000030A2000030A1000030A0000030240534
:102AD600A80000302505A90080302605AA007F3011
:102AE6002705AB002B082A0429042804031D7C2D86
:102AF6007D2D852D0030A7000030A6000030A500F2
:102B06000030A400A31F882D892DAD2D0030A8000C
:102B16000030A9000030AA008030AB002008A802CF
:102B26002108031C210F982D992DA9022208031CA8
:102B3600220F9E2D9F2DAA022308031C230FA42DCE
:102B4600A52DAB022B08A3002A08A2002908A10084
:102B56002808A000A71FB02DB12DD52D0030A80044
:102B66000030A9000030AA008030AB002408A8027B
:102B76002508031C250FC02DC12DA9022608031CFC
:102B8600260FC62DC72DAA022708031C270FCC2DFA
:102B9600CD2DAB022B08A7002A08A6002908A50000
:102BA6002808A4008030A3068030A7062708230241
:102BB600031DE72D26082202031DE72D2508210205
:102BC600031DE72D240820020318EA2DEB2DED2D19
:102BD6000310EE2D0314080083120313AE002E0813
:102BE6000319F62DF72D0B2EA91FFA2DFB2D0B2EF3
:102BF6002609B0002709B1002809B2002909B30047
:102C0600B00A0319B10A0319B20A0319B30A132E3B
:102C16002908B3002808B2002708B1002608B0002A
:102C26002908280427042604031D1A2E1B2E242EE9
:102C36000030A9000030A8000030A7000030A60030
:102C4600A82E9630AF00342E0130AA002A08AF070E
:102C560001300310B30CB20CB10CB00CFF3E031DD7
:102C66002C2EFE303305031D392E3A2E272E562ED6
:102C76000130AA002A08AF070130B0070030031858
:102C86000130B107003003180130B20700300318D5
:102C96000130B30701300310B30CB20CB10CB00C09
:102CA600FF3E031D4E2EFF303305031D5B2E5C2EAB
:102CB6003B2E682E0130AF020130AA000310B00D82
:102CC600B10DB20DB30DAA0B612EB21B6B2E6C2E7D
:102CD600722E02302F020318712E722E5D2E2F18BF
:102CE600752E762E7E2EFF30B005FF30B1057F3073
:102CF600B205FF30B3050310AF0C2F08AA00AB01D5
:102D0600AC01AD0118300310AA0DAB0DAC0DAD0D25
:102D1600FF3E031D862E2A08B0042B08B1042C089A
:102D2600B2042D08B3042E0803199A2E9B2EA02E4A
:102D3600A91F9E2E9F2EA02EB3173308A900320876
:102D4600A8003108A7003008A60008000A168A1550
:102D5600B7260A168A110A168A110C230A168A1130
:102D66000A168A151F270A168A110A168A11C024FE
:102D76000A168A1100300A168A1556270A168A116B
:102D860000300A168A111F200A168A1100300A1608
:102D96008A15C7270A168A110B3083160313CA0031
:102DA6002630C9005D30C800C80BD72EC90BD72EF8
:102DB600CA0BD72E013083160313C8004808D6075E
:102DC6000A168A1152220A168A11DA30831203135E
:102DD600B000D930B100DB300A168A15EA260A1689
:102DE6008A110A128A1574230A168A110A168A117A
:102DF600FA210A168A111A3083160313C900F7300E
:102E0600C800C80B042FC90B042F092F0A128A11F8
:102E16007B270A168A11831603135808031D142FDD
:102E2600152FBA2F0A3083120313A40001300A1695
:102E36008A115A210A168A111A3083120313A50021
:102E46008030A6000A168A11CE200A168A110C3086
:102E560083120313A40001300A168A115A210A1696
:102E66008A11903083120313A5000130A6000A16BA
:102E76008A11CE200A168A1183120313A401A40A0A
:102E860001300A168A115A210A168A110B3083124A
:102E96000313AE00831603135908C800C901480876
:102EA60083120313AF008316031349088312031317
:102EB600B000831603135A08CA00CB014A088312CE
:102EC6000313B100831603134B0883120313B200D6
:102ED600831603135B08CC00CD014C088312031341
:102EE600B300831603134D0883120313B400C030D6
:102EF6000A128A151B200A168A11C0308312031380
:102F0600A5000130A6000A168A11CE200A168A11DB
:102F160083120313A401A40A02300A168A115A2145
:102F26000A168A11153083120313AE008316031393
:102F36005708C800C901480883120313AF00831657
:102F46000313490883120313B000C0300A128A150E
:102F56001B200A168A11C03083120313A500013004
:102F6600A6000A168A11CE200A168A11DD2E5803EB
:102F7600031DBE2FBF2FDD2E0A3083120313A400BC
:102F860001300A168A115A210A168A111A3083123A
:102F96000313A5008030A6000A168A11CE200A1651
:102FA6008A11831603135508A3005408A200530878
:102FB600A1005208A0001030A4000230A5000A1299
:102FC6008A1130200A168A1183120313A401A40A57
:102FD60001300A168A115A210A168A1110308312F4
:102FE6000313A5000130A6000A168A11CE200A1680
:102FF6008A11DD2E0A128A110C28FF1B0A28831358
:103006007F1883170008840A0319FF0A080018307E
:103016008A000408840A82070034013400340A3422
:10302600003464340034E83403341034273425344F
:103036003034323475343A342534303432347534DD
:103046003A342534303432347534003454343A3416
:02305600003444
:103A240064008001840A0406031900340406132D7B
:103A34000A168A1559250A168A15831603131114B2
:103A440008000A168A1559250A168A1583160313BF
:103A5400111508000A168A1559250A168A158312A3
:103A640003132A08930008008316031391161116F2
:103A740083128C1D3E2D3F2D3A2D8C110800831688
:103A840003139112111683128C1D492D4A2D452DB5
:103A94008C11080000300A128A1501200A168A15B2
:103AA40001300A128A1501200A168A1508008316A5
:103AB400031314195E2D5F2D592D11081F39031D91
:103AC400642D652D592D0800831203132308220445
:103AD4002104200403196F2D702D722D8030A3064C
:103AE40008000A168A1559250A168A15831603131F
:103AF400911483128C1D7F2D802D7B2D8C11080039
:103B040083120313A100A0013A30210203188B2D64
:103B14008C2D942D30302102031C912D922D942D47
:103B2400A001A00A200C080083120313A000A10125
:103B34000A302002031C9F2DA02DA72D2008F63E3D
:103B4400A0002108103EA1009A2D20082107A10001
:103B54002108080083120313A300A201231CB32D20
:103B6400B42DB82D2008A1002108A2070310A00D30
:103B74000310A30C2308031DC02DC12DB02D220852
:103B8400080083120313A300081323080A168A15D6
:103B9400DF250A168A158312031388170B30831244
:103BA4000313A2006130A100A10BD62DA20BD62DC8
:103BB400DB2D831203138813080083120313A00060
:103BC400201CE52DE62DE82D0616E92D0612A01C75
:103BD400EC2DED2DEF2D8616F02D8612201DF32DE4
:103BE400F42DF62D0617F72D0613A01DFA2DFB2D27
:103BF400FD2D8617FE2D86130800F000701C032E81
:103C0400042E082E8312031306160B2E831203139D
:103C14000612F01C0E2E0F2E112E8616122E861250
:103C2400701D152E162E182E0617192E0613F01DAC
:103C34001C2E1D2E1F2E8617202E861308000A16F2
:103C44008A1559250A168A158316031391150A161F
:103C54008A1559250A168A15831203131308A2001C
:103C6400A3012208A4002308A5000A168A155925D1
:103C74000A168A15831203132508A1002408A0003C
:103C84000800803083120313EB066F08D7006E0818
:103C9400D6006D08D5006C08D4006B08DB006A08F8
:103CA400DA006908D9006808D8000A128A15A8251C
:103CB4000A168A15831203135708EB005608EA0004
:103CC4005508E9005408E800080083120313A4010E
:103CD400A501201C6E2E6F2E752E2208A407031832
:103CE400A50A2308A50701300310A20DA30DFF3E6A
:103CF400031D762E01300310A10CA00CFF3E031D02
:103D04007D2E20082104031D882E892E6B2E250864
:103D1400A1002408A000080083120313A800A40132
:103D2400A5012008A200A3012208A6002308A700D9
:103D3400281C9D2E9E2EA42E2608A4070318A50A2F
:103D44002708A50701300310A60DA70DFF3E031D8C
:103D5400A52E0310A80C2808031DB12EB22E9A2EEE
:103D64002508A1002408A000080083160317880171
:103D740089010830831603138600880189018312A0
:103D840003138501860187018801890183160313C2
:103D94000F178F160F160F1481128111011581143C
:103DA40001148B170B108B150B1181139615951598
:103DB400003083120313B1000130B0008630AF002D
:103DC400A030AE000A168A1158200A168A15080077
:103DD40083120313B2003208840000300A168A11D9
:103DE400A6210A168A150A168A1103200A168A15AC
:103DF40083138000831203133008840001300A16F1
:103E04008A11A6210A168A150A168A1103200A168F
:103E14008A1583138000831203133108840002304F
:103E24000A168A11A6210A168A150A168A1103206F
:103E34000A168A158313800008006830831203135E
:103E4400AD00E330AC00AC0B252FAD0B252F2A2F92
:103E54000A168A151A250A168A1570308312031356
:103E6400AA000030AB000A168A152C250A168A15FA
:103E7400BA3083120313AA000030AB000A168A1565
:103E84002C250A168A150A168A1523250A168A1558
:103E9400413083120313AD00ED30AC00AC0B502F56
:103EA400AD0B502F552F080083120313AE000A16D2
:103EB4008A151A250A168A15D03083120313AA000C
:103EC4000030AB000A168A152C250A168A15003014
:103ED40083120313AA00AB000A168A152C250A16AE
:103EE4008A15831203132E080A168A1596250A16B4
:103EF4008A1583120313AC00AD012C08AA002D0807
:103F0400AB000A168A152C250A168A150A168A1574
:103F140023250A168A15080083120313A400240813
:103F24000F39A2002408F039A30008172308A100C0
:103F340004300310A10CFF3E031D9B2F21080A1619
:103F44008A15DF250A168A15831203138817193078
:103F540083120313A100A10BAD2FB02F83120313FF
:103F6400881322080A168A15DF250A168A15831271
:103F740003138817193083120313A100A10BC02F58
:103F8400C32F831203138813080083120313AE0094
:103F94000A168A151A250A168A15D03083120313B5
:103FA400AA000030AB000A168A152C250A168A15B9
:103FB400023083120313AA000030AB000A168A15DC
:103FC4002C250A168A15831203132E080A168A153D
:103FD40096250A168A1583120313AC00AD012C082A
:103FE400AA002D08AB000A168A152C250A168A1574
:103FF4000A168A1523250A168A150800FF3FFF3F73
:04400400FF3FFF3F3C
:04400E00D420FF3F7C
:00000001FF
